:100000000C942A000C9447000C9447000C94470071
:100010000C9447000C9447000C9447000C94470044
:100020000C9447000C9447000C9447000C94C502B4
:100030000C9447000C9447000C9447000C94470024
:100040000C9447000C9447000C9447000C94470014
:100050000C94470011241FBECFE5D8E0DEBFCDBF12
:1000600010E0A0E6B0E0E8EDF5E002C005900D92EA
:10007000A036B107D9F710E0A0E6B0E001C01D92AC
:10008000A536B107E1F70E948E020C94EA020C94A7
:100090000000813049F0813028F0823039F083301F
:1000A00041F406C06ABB089567BB089564BB089518
:1000B00061BB0895813049F0813028F0823039F0F9
:1000C000833041F406C06BBB089568BB089565BBDF
:1000D000089562BB0895813059F0813028F0823054
:1000E00059F0833081F40CC08BB380958BBB08959D
:1000F00088B3809588BB089585B3809585BB0895A6
:1001000082B3809582BB0895813049F0813028F018
:10011000823039F0833049F406C08BB3089588B338
:10012000089585B3089582B3089580E00895442327
:1001300019F04F3FD1F521C0813069F0813028F0AE
:10014000823079F08330C9F412C08AB3962F90952B
:1001500089238ABB1BC087B3962F9095892387BBC1
:1001600019C084B3962F9095892384BB17C081B39F
:10017000962F9095892381BB15C0813059F081302D
:1001800028F0823059F0833081F40CC08AB3682B98
:100190006ABB089587B3682B67BB089584B3682B47
:1001A00064BB089581B3682B61BB0895442319F0A3
:1001B0004F3FB1F51DC0813061F0813028F08230B1
:1001C00069F0833069F50FC08BB3609568236BBB12
:1001D000089588B36095682368BB089585B36095DA
:1001E000682365BB089582B36095682362BB089558
:1001F000813059F0813028F0823059F0833081F419
:100200000CC08BB3682B6BBB089588B3682B68BB9D
:10021000089585B3682B65BB089582B3682B62BBD4
:100220000895813059F0813028F0823059F08330C0
:1002300081F40CC08BB368276BBB089588B3682723
:1002400068BB089585B3682765BB089582B36827A6
:1002500062BB0895813051F0813028F0823049F03E
:10026000833069F409C089B368230AC086B3682360
:1002700007C083B3682304C080B3682301C060E073
:1002800081E0662309F480E008958FB780688FBF0E
:1002900008958FB78FB7887F8FBF0895813069F039
:1002A000813028F0823079F08330C1F412C081E0CF
:1002B00060E14FEF0E949700089581E060E24FEF08
:1002C0000E949700089581E060E44FEF0E9497003C
:1002D000089581E060E84FEF0E9497000895813013
:1002E00069F0813028F0823079F08330C1F412C097
:1002F00081E060E14FEF0E94D600089581E060E266
:100300004FEF0E94D600089581E060E44FEF0E9415
:10031000D600089581E060E84FEF0E94D60008956E
:10032000813069F0813028F0823079F08330C1F477
:1003300012C081E060E140E00E94D600089581E0B3
:1003400060E240E00E94D600089581E060E440E071
:100350000E94D600089581E060E840E00E94D60047
:100360000895813061F0813028F0823069F0833067
:10037000A1F40FC081E060E10E941101089581E0C5
:1003800060E20E941101089581E060E40E94110181
:10039000089581E060E80E941101089582BF0895E8
:1003A00082B7089583B7887F83BF93B78091640035
:1003B000892B83BF089583B7887F83BF0895EF9209
:1003C0000F93442319F40E94DB0120C093B7892BBB
:1003D000682B642B63BF4093640022BF0CBF81E095
:1003E000E81649F0E81620F082E0E81679F409C032
:1003F00089B719BE0BC00E94450189B7816089BFCA
:1004000005C00E94450189B7826089BF0F91EF90B6
:100410000895CF93DF93EC01109260001092610079
:10042000109262001092630080E30E94CE01CC0F14
:10043000DD1FCC0FDD1FCC0FDD1FAE0160E070E0D3
:100440008091600090916100A0916200B091630082
:10045000481759076A077B0798F7DF91CF910895EE
:100460008F929F92AF92BF92CF92DF92EF92FF92C4
:100470004B015C01109260001092610010926200CA
:10048000109263006115710581059105E9F0CC2496
:10049000DD2476018EEF0E94CE0180916000909164
:1004A0006100A0916200B091630082309105A105C6
:1004B000B10598F30894C11CD11CE11CF11CC814AF
:1004C000D904EA04FB0431F7FF90EF90DF90CF905E
:1004D000BF90AF909F908F900895109260001092FF
:1004E000610010926200109263008BE90E94CE01BD
:1004F0008091600090916100A0916200B0916300D2
:1005000082309105A105B10598F3089508950895E5
:1005100008950895089508950895089580E060E08D
:1005200042E020E000E0EE24E3940E94DF0181E05D
:100530000E944E0182E00E944E0183E00E944E0123
:1005400081E00E946F010E94D20188EE93E00E9438
:10055000090281E00E94900183E00E946F010E94E5
:10056000D20188EE93E00E94090283E00E9490018C
:1005700082E00E946F010E94D20188EE93E00E9407
:10058000090282E00E949001DBCF1F920F920FB60A
:100590000F9211248F939F93AF93BF93809160002C
:1005A00090916100A0916200B09163000196A11D3D
:1005B000B11D8093600090936100A0936200B0939E
:1005C0006300BF91AF919F918F910F900FBE0F90DD
:0805D0001F901895F894FFCF6D
:00000001FF
